:400000000080002011000000650100006501000008B5044B1A6803F53F5302331A6000F0C1F800BFFA46004010B5054C237833B9044B13B10448AFF300800123237010BDF2
:400040008881FF1F00000000F4150000084B10B51BB108480849AFF300800848036803B910BD074B002BFBD0BDE81040184700BF00000000F41500008C81FF1F0881FF1F2F
:400080000000000030B5AFB000F09AFA02460E2821DD044601A8114900F0A2FE01A800F0EBFA0D2000F0DCFA04E000F049FA00F0D7FA2C46651E002CF7DC00F0AFFA012028
:4000C00000F030FE322000F083FC002000F02AFE322000F07DFC2FB030BD00BF68980300814210D208B5012000F01CFE064800F0C3FA0D2000F0B4FA044800F0BDFA0D202D
:4001000000F0AEFAFEE770477C9803009498030010B5AEB062B60F4C4FF44033E36600F001FA0D4800F0E2FD0C48E16EFFF7D8FF01A80B49B42200F053FE01A8E16E1122F2
:4001400000F0F6FAE06E00F097FA0D2000F088FAFEE700BFC081FF1F85000000F8150000A498030008B500F0FBFD03680C2B00D1FEE7FEE708B5094B1A681044084BC31A64
:40018000802B02DC054B186005E000F0E9FD0C2303604FF0FF32104608BD00BF0C81FF1F8084FF1F08B5104E104D16E029686B68AC68002204E051F8040B43F8040B0432C6
:4001C000A242F8D1E868002203E0002143F8041B04328242F9D11035013E002EE6D100F0C5FDFFF795FFFEE7010000005899030008B5124A124B1A60124A136843F40073CE
:40020000136000230AE0032B03D80F4A52F8231000E00E490E4A42F8231001332F2BF2D90C4B1A780C4B1A70094A0C4B1A6000F0ADF800220A4B1A6008BD00BF0004FA050F
:400240000CED00E014ED00E000000000650100000080FF1FBC7600400481FF1F08ED00E00081FF1FFEE700BFF0B40022174611E050F82760F3B226F0FF0608E001EB4205D5
:4002800011F812406D78A5550132013BDBB2002BF4D101370F2FEBD9F0BC7047064B1B78DBB203F00701054A11701B09013213704422034B1A707047CF0100496E58004051
:4002C0007658004008B50A46002100F080FD08BD38B51925234B1D80182202331A70022203F27E231A7008224FF040231A70032103F5007319701C4B1B78DBB21B490B7049
:400300001B4B1A8041F25122023B1A8000240CE0184B1B7803F0010343EA440404F003044FF4F07000F00CFD013D0DB1032CEFD115B90320FFF796FF0F4B4FF480721A80A7
:4003400007221A7000220D490A704820023108701A700222033B1A70094A137843F00103137038BD8040004008010049A146004022420040254200400440004006400040F4
:40038000A243004008B500F017FD08BD38B572B6334A137843F00403137000240CE0314963001A1952000A4423445B00C8589188FFF788FF0134E4B2082CF0D900240BE0A9
:4003C0002849A3001A1952000A44906BD16B8022FFF7D8FF0134E4B2002CF1D04FF090402149FFF741FF214A137843F0020313701032137843F0020313701D4C237843F099
:4004000040032370A2F58632513A137843F010031370184818490A22FFF7B4FF174818490822FFF7AFFF174817490822FFF7AAFF164A137843F008031370154D61232B70DF
:40044000FFF746FF81232B700122124B1A70FFF725FF114821460E22FFF794FF38BD00BFE8460040B89803004000004803500140A0430040C051004024030048125100404E
:40048000300300482251004038030048224300400048004004000840B043004008B500200C4900F0D7FA0020072100F0E7FA0023094A13707221094A11702021013211707E
:4004C00006215F3A11704721103211705132137008BD00BF9D060000A481FF1F8865004010B500F035FC04460B4A137843F0200313700132137843F0100313700122074B0E
:400500001A60074A137843F01003137000F0FCFB204600F021FC10BD9865004000E100E09B65004008B5054B5B7823B9FFF7B6FF0122024B5A70FFF7D3FF08BDA481FF1FC6
:400540000122194B1A60194A9378DBB2D178C9B2127912F0FF0F01D18B4211D0144AD05CC0B20133DBB2C72B00D900230F4A9370137913F0FF0F13D000220C4B1A710FE026
:400580000C4B1B78DBB213F0200F06D00A4A1078C0B213F01E0F02D102E0002000E000200122064B1A60704780E100E0A481FF1FB083FF1F696500404865004000E100E033
:4005C0000122134B1A60134A9378D278DBB2934206D1104B1B7913F0FF0F14D0C82013E00C4A9378D278DBB2934205D2094AD3789078181AC0B207E0064AD3789078181A6C
:400600003838C0B200E000200122034B1A60704780E100E0A481FF1F00E100E008B500F097FB0B4B1A7842F001021A701A7802F0FE021A7000F090FB0121064B1960064B45
:4006400000229A70DA701A715A71044B196008BD9865004080E100E0A481FF1F00E100E0034B1B7813F0040FFAD1024B187070476B6500404B65004038B5074B5B782BB95B
:4006800038BDFFF7EDFF0134A4B201E005460024285D0028F5D138BDA481FF1F1C4B1B78DBB213F01E0F05D01A4803F01E0201780A43027003F0200303F0FF022BB3164B5B
:4006C0001978C9B2154B1B78DBB21548C154154B1B7813F0FF0F02D00121134B19700F490B780133DBB20B700B78DBB2C72B02D900210A4B1970094B1B780C490978DBB2E0
:400700008B4202D10121074B1970002AC6D1704769650040A481FF1F48650040A781FF1FB083FF1FA881FF1FA981FF1FA681FF1F2DE9F04FADF5097D8B18B3F5802F3ED86E
:400740000E461746804600F09DF8684600F0A4F84FEA164AC6F3072909EB0A2424024FF0000B5D4623E0B44207D3BD4205D218F8051048AAD154013502E0217848AAD154DF
:400780000134013300E00023FF2BECD95FFA8AF01FFA89F148AA00F00FF9834609F10109B9F1FF0F03D90AF1010A4FF00009BD4202D2BBF1000FE6D000F02AF901E04FF068
:4007C000010BBBF1010F01D94FF0FF3B58460DF5097DBDE8F08F00BF10B500F067F900F015FAD0B900F054FA0446072812D102E0012000F003F90A4B1B7813F0020FF7D0EC
:40080000074B1B7813F0020F04D0054B1B789B0800D1002400F020FA00E00424204610BD2247004010B500F041F900F0EFF910BB012000F0CDF9072818D11048022100F096
:4008400047F902280AD102E0012000F0D7F80C4B1B7813F0020FF7D0002409E0084B1B7813F0020FE9D04FF0FF3401E04FF0FF3400F0F2F900E00424204610BD7884FF1FF7
:400880002247004008B5FFF7A7FF034610B9FFF7C9FF0346184608BD10B5044600F006F944B100F0B3F938B9044B1C6000F0D4F9002010BD012010BD042010BDAC81FF1FDB
:4008C0002DE9F041441FE4B23A2C01D9002500E0012510F0800F00D00125412800D901253F2803D8B1F5807F06D808E0802900D90125102B02D102E0012500E0012502B934
:400900000125002D50D1984616460F46044600F07DF9002847D1204639463246434600F0F1F8064607283AD102E0012000F066F81F4B1B7813F0020FF7D01D4B1B7813F058
:40094000020F06D01A4B1B789B0805D04FF0FF3603E04FF0FF3600E02E4606BB154B204639461A785B7800F00DF9072804D0064615E0012000F042F80D4B1B7813F0020F12
:40098000F7D00B4B1B7813F0020F06D0084B1B789B0804D04FF0FF3601E04FF0FF3600F05BF9354600E004252846BDE8F08100BF224700407884FF1F08B53F2801D9102378
:4009C00001E04FF48073FFF77BFF08BD01BE704710B5044605E0084B186800F0B1F9A4F50044B4F5004FF6D8034B586800FB04F000F0A6F910BD00BF1081FF1F08B5034B5F
:400A00001B7A03FB00F000F09BF908BD1081FF1F08B500F09DF900BF00BF00BF00BF00BF00BF00BF00BF00BF00BF00BF00BF00BF00BF00BF00BF064A13889BB243F0040396
:400A400013801388BFF36F8F00F086F908BD00BF0048004070B504460E46074B1D681F2802D90020FFF7B2FF04F01F04103455F8240045F8246070BD08ED00E038B50446D4
:400A80000D46072902D90020FFF7A0FF1F2C02D90020FFF79BFF04F01F0000F1604000F564406D01EDB2057038BD00BF08B500F04FF9064A137843F008031370103213787C
:400AC00043F00803137000F047F908BDA043004070B506460D4600240CE00120FFF78EFF064B1B7813F0010FF7D0054B1B7833550134E4B2AC42F3D3204670BD22470040C1
:400B00002047004070B41D4C247814F0020F2CD01B4CB6252570D5252570022525700234247814F0020F22D1154C2070002404E0165D134D2E700134A4B29C42F8D3B3F592
:400B4000807F16D13F2816D800F5103001EB00214801002305E01A5CD2B209490A7001339BB21F2BF7D9072006E0042004E0092002E0072000E0072070BC7047224700406C
:400B80002047004030B4104C247814F0020F15D00E4CB6252570D8252570052525700234247814F0020F0BD1084C2070080A2070C9B2217022702370072002E0042000E016
:400BC000092030BC704700BF22470040204700400C4B1B7813F0020F0FD00B4BB6221A70E1221A700E221A7002331B7813F0020F05D1054B187007207047042070470920D2
:400C0000704700BF224700402047004010B500F09FF80F4B1B78A3B901220D4B1A700D4B1B6813F0010F0ED00A4A136823F00103136000BF00BF00BF0122054B5A600024A1
:400C400002E0042400E0002400F086F8204610BDB081FF1F0400084008B500F079F80A4B00221A705B68012B0AD1084A136843F00103136000BF00BF00BF0022024B5A6064
:400C800000F06AF808BD00BFB081FF1F04000840074B1B7813F0020F08D0064BB6221A70E0221A700D221A7007207047042070472247004020470040014B1B6858647047AF
:400CC00008ED00E04001C0B2014B1870704700BF01E400E00222014B1A60704700E100E00222014B1A60704780E100E010B50446FFF7F6FF2046FFF7DFFF0720FFF7E2FFE7
:400D0000FFF7E8FF10BD00BF054A137843F0010313701032137843F001031370704700BFA2430040044A137803F0FD03400000F00200184310707047205100400000000053
:400D40000230800803D000BF01380046FCD17047EFF3108072B6704780F31088704700BF014B1868704700BF8081FF1F0E4B70B51E460E4C0025E41AA410A54204D056F8D5
:400D8000253098470135F8E738F0D4FD084B094C1E46E41AA4100025A54204D056F8253098470135F8E770BD4099030040990300409903004899030010B5431E0A449142D0
:400DC00004D011F8014B03F8014FF8E710BD03460244934202D003F8011BFAE7704700000EB400B54FF402719CB0ADF814106FF00041049107914FF6FF711DABADF8161097
:400E0000084953F8042B02900690086802A9019300F064F8029B00221A701CB05DF804EB03B070478081FF1F2DE9F0478E688246B3420C469046994640D38A8912F4906FB0
:400E40003AD02568096902236F1A656905EB450595FBF3F57B1C4B449D4238BF1D4653050FD5294600F030FB064698B121693A46FFF7A2FFA38923F4906343F08003A381D0
:400E800013E02A4600F076FB064670B95046216900F0D6FA0C23CAF80030A3894FF0FF3043F04003A381BDE8F08726613E4426604E466561ED1BA560B14500D24E463246DE
:400EC0002068414600F0A0FAA36800209B1BA36023681E442660BDE8F08700002DE9F0439DB003938B8906461C060D4690460CD50B6953B9402100F0E7FA2860286110B9A2
:400F00000C233360CCE040236B610023099320238DF8293030238DF82A3043461C4613F8012B1AB9B4EB08090FD002E0252AF5D1F8E73046294642464B46FFF775FF01300F
:400F400000F0A980099B4B4409932378002B00F0A28000234FF0FF3204930793059206938DF853301A9304F101084446DFF8489121784846052200F039FA08F10108049BBE
:400F800030B1C9EB00000122824013430493ECE7D80644BF20228DF85320190744BF2B228DF8532022782A2A02D0079923460EE0039A0134111D12680391002ABBBF524277
:400FC00043F0020307920792B8BF04930AE01C4622780133303A092A03D80A2000FB0121F5E7079123782E2B1AD163782A2B0AD1039B02341A1D1B680392002BB8BF4FF03E
:40100000FF3305930CE0611C00220C4623780131303B092B03D80A2000FB0232F5E70592DFF8988021784046032200F0DFF938B1049AC8EB00004023834013430493013479
:4010400021781A48062204F101088DF8281000F0CDF988B1164B33B9039B073323F007030833039313E003AB0093304604A92A46104BAFF3008007E003AB0093304604A901
:401080002A460C4B00F092F8421C074603D0099B3B44099341E7AB895B0601D4099801E04FF0FF301DB0BDE8F08300BF0899030000000000290E0000FE9803000499030078
:4010C0002DE9F84391461F468A680B6906469342B8BF1346C9F8003091F843200C46DDF8208012B10133C9F800302368990642BFD9F800300233C9F80030256815F0060591
:401100001CD094F843302268003318BF012392061FD5E118302081F843005A1C94F845102244023382F8431013E03046394604F119020123C047013007D00135E368D9F83F
:4011400000209B1A9D42F0DBDBE74FF0FF30BDE8F8833046394604F14302C0470130F4D02268D9F80050E36802F00602042A08BF5D1B2269A3680CBF25EAE5750025934254
:40118000C4BF9B1AED184FF00009A9450ADA3046394604F11A020123C0470130D5D009F10109F2E70020BDE8F88300002DE9FF410C461746227E98466E2A06460A9B01F1B6
:4011C000430100F0B08012D8632A23D00AD8002A00F0BD80582A40F0CC8084F84520DFF804E257E0642A1ED0692A1CD0C1E0732A00F0B18009D86F2A2ED0702A40F0B98040
:40120000226842F0200222603FE0752A24D0782A3BD0AEE01A6804F14205111D1960136884F84230A9E020681A6810F0800F02D0101D186008E010F0400F02F10400186054
:4012400002D0B2F9003000E01368002B3EDA2D225B4284F8432039E020681A6810F0800F02D0101D186007E010F0400F02F10400186001D0138800E01368227EDFF864E107
:401280006F2A0CBF08220A221CE07822DFF858E184F845202268186812F0800F00F104051D6003D1550601D5038800E00368D00744BF42F0200222601BB9226822F02002BE
:4012C00022601022002084F8430002E0DFF814E10A226568002DA8BF2068A560A4BF20F00400206003B965B10D46B3FBF2F002FB10331EF8033005F8013D03460028F4D1ED
:4013000000E00D46082A0BD12368DA0708D5236962689A42DEBF302305F8013C05F1FF35491B21612EE025681A6815F0800F606903D0151D1D60136808E015F0400F02F111
:4013400004051D60136801D0188000E01860002323610D4616E01A68111D1960156800212846626800F042F808B1401B6060636804E004F1420584F842200123236100232A
:4013800084F84330CDF800803046214603AA3B46FFF796FE013002D14FF0FF301FE0304639462A462369C0470130F5D023689B0705D4E068039B9842B8BF18460FE0002556
:4013C000E368039A9B1A9D42F3DA3046394604F119020123C0470130DED00135F0E704B0BDE8F0810F9903002099030010B5C9B202449042034605D01C7801308C42F8D185
:40140000184610BD002010BD814210B501EB020301D3421E0BE09842FBD28118D21AD34204D013F8014D01F8014DF8E710BD994204D011F8014B02F8014FF8E710BD0000A1
:4014400030B500293CD051F8042C0B1F1D49002AB8BF9B180A680C4612B95A600B6030BD93420DD219685818904201BF5A5852181A60426823605A6030BD994203D80A46AD
:4014800051680029F9D1146815199D420AD11B682344D0188842136012D10868034413604B680CE002D90C23036030BD1C681819884201BF086849680019186059605360AA
:4014C00030BD00BFBC81FF1F70B5CC1C24F0030408340C2C38BF0C24002C064603DA0C233360002070BD8C42F9D3204A136810461946A1B10A68121B0ED40B2A03D90A603C
:401500008B188C501FE08B420BBF5A684A6802605A6018BF0B4616E00B464968E9E7144D2B681BB9304600F04BF828603046214600F046F8421C0346D1D0C51C25F00305CC
:4015400085420AD11C6003F10B001A1D20F00700821A0AD05142995070BD3046E91A00F02FF80130BBD02B46ECE770BDBC81FF1FB881FF1FF8B5074615460E4621B9114698
:40158000BDE8F840FFF7A0BF1AB9FFF759FF2846F8BD00F025F8A8420ED238462946FFF793FF044650B131462A46FFF705FC38463146FFF745FF01E03046F8BD2046F8BDEA
:4015C00038B5064C0023054608462360FEF7D2FD431C02D1236803B12B6038BD7C84FF1F51F8040C0028BEBF091851F8043CC0180438704700000000000000000000000027
:4016000000000000000000000000000000000000000000000000000000000000000000000000000000000000000000000000000000000000000000000000000000000000AA
:40164000000000000000000000000000000000000000000000000000000000000000000000000000000000000000000000000000000000000000000000000000000000006A
:40168000000000000000000000000000000000000000000000000000000000000000000000000000000000000000000000000000000000000000000000000000000000002A
:4016C00000000000000000000000000000000000000000000000000000000000000000000000000000000000000000000000000000000000000000000000000000000000EA
:020000040003F7
:40984000000000000000000000000000000000000000000000000000000000000000000000000000000000000A0A4275666665722053697A653A2025640A0A00466C617342
:409880006820416363657373204572726F72210A0000000053797374656D2048616C74730A00000048656C6C6F20576F726C64212025640A000000000051004010003051BC
:4098C00000404000F0510040100000000140001000140140000480180140800300400140000A004C01400002005001402000000000180140A4020048800000004300232D2C
:40990000302B2000686C4C006566674546470030313233343536373839414243444546003031323334353637383961626364656600000000F8B500BFF8BC08BC9E46704705
:409940004D000000F1010000F8B500BFF8BC08BC9E46704729000000689903000881FF1F80000000F8020000000000008084FF1F0000E02EC05D00001800000000366E01D1
:409980000000000000000000000000000000000000000000000000000000000000000000FC9803000000000000000000000000000000000000000000000000000000000010
:4099C00000000000000000000000000000000000000000000000000000000000000000002081FF1F00000000000000000000000000000000000000000000000000000000A8
:409A00000000000000000000000000000000000000000000000000000000000000000000000000000000000000000000000000000000000000000000000000000000000026
:409A400000000000000000000000000000000000000000000000000000000000000000000000000000000000000000000000000000000000000000000000000000000000E6
:409A800000000000000000000000000000000000000000000000000000000000000000000000000000000000000000000000000000000000000000000000000000000000A6
:409AC0000000000000000000000000000000000000000000000000000000000000000000000000000000000000000000000000000000000000000000000000000000000066
:0200000480007A
:40000000025200400365004001070140010901401418014040190140701A0140531B014003400140014101400142014003430140014C0140074D0140025001400151014014
:4000400061806440887289388B0FE60480408301840894049A029C01A202A401A801B002B204B401B608B701BE45D418D604D804D904DB04DF0103200410050106020710F9
:4000800009540C500E0A0F2010A01110148015401601172419081A011B111C801D011E2A23012510260827112C102D402E022F083480360937203A023C803E083F2144507F
:4000C000451047404C804F2056805B015E20604463026C206D906E047609772486019440C0F4C2E7C4FECAF0CCF0CEF1D0F0D220D621D80DE008000C02710410058006AC2C
:4001000007130F0C100912D01414152C174319711A031B061F08201021712240230E262028DC2A2230E031C0330F341F353039223A023B083F104002460449FF4A074BFF5F
:400140004C404D204EF04F055008580459045A045F01604061A8624063208013810882048314840A85188614882089188AC08F0192089413960C972098E09B019C039D103C
:400180009E149F0CA080A101A220A501A615A8E0AB02AC40AE20AF20B010B106B2E0B301B40FB520B718B908BA20BE01BF11C026C105C50BC7CEC831C9FFCAFFCBFFCEF0CE
:4001C000CF44D00CD401D804D904DA04DB04DF01E6C0EA40EB02000801020410050207200A280B400C040E040F4210801104132014801514160219021A081B201C181D3045
:400200001E401F082118236024042684274029022B402C502E802F0830803118348036843710380839043B403C803D103E064110440445204C044E104F8050845408550555
:4002400057015D285E405F018A028C088D218F01911092049414985099089A809B109C809E029F40A040A504A728C07CC2FEC4FECAF1CC7ECEFAD024D230D6F03110351058
:40028000CC309D109D1081109D10E62087101040731088409310C408DC01E20110011C01000F00001F0020041C082300030000E3011C00E100FF0000003C23C233180C0021
:4002C0003F8000000244000004E700180CC00000081000002C00101F0F3800C00000A208000004003604020001C00E0006FFFFFF62A0F0410C000000000002110404040492
:40030000000000010000000000004002001030100010101200000000000000000000000000000000800040808000800000000000000B0B000000000000020200000000009E
:40034000000000000000000000000000000000000000000000000000000000000000000000000000000000000000000000000000000000000000000000000000000000007D
:40038000000000000000000000000000000000000000000000000000000000000000000000000000000000000000000000000000000000000000000000000000000000003D
:4003C00000000000000000000000000000000000000000000000000000000000000000000000000000000000000000000000000000000000000000000000000000000000FD
:4004000000000000000000000000000000000000000000000000000000000000000000000000000000000000000000000000000000000000000000000000000000000000BC
:0200000490006A
:0400000000004005B7
:0200000490105A
:04000000BC90ACAF55
:0200000490303A
:020000003E2B95
:0200000490402A
:4000000000000000000000000000000000000000000000000000000000000000000000000000000000000000000000000000000000000000000000000000000000000000C0
:400040000000000000000000000000000000000000000000000000000000000000000000000000000000000000000000000000000000000000000000000000000000000080
:400080000000000000000000000000000000000000000000000000000000000000000000000000000000000000000000000000000000000000000000000000000000000040
:4000C0000000000000000000000000000000000000000000000000000000000000000000000000000000000000000000000000000000000000000000000000000000000000
:0200000490501A
:0C00000000012E16106900012E1F4E9406
:00000001FF